:100000000C9434000C9451000C9451000C94510049
:100010000C9451000C9451000C9451000C9451001C
:100020000C9451000C9451000C9451000C9451000C
:100030000C9451000C9451000C9451000C945100FC
:100040000C9451000C9451000C94F0010C94190282
:100050000C944C020C9451000C9451000C945100DF
:100060000C9451000C94510011241FBECFEFD8E026
:10007000DEBFCDBF16E0A0E0B1E0ECECFEE002C0D8
:1000800005900D92A83AB107D9F727E0A8EAB6E0A3
:1000900001C01D92AF3AB207E1F70E9466050C94C9
:1000A00064070C9400009C019FB7F894F999FECF67
:1000B00032BD21BD60BDFA9AF99A9FBF0895F999A2
:1000C000FECF92BD81BDF89A80B50895CF92DF92A0
:1000D000EF92FF920F931F93CF93DF938C016115E3
:1000E000710559F1FC01808190E0019629E0289F7B
:1000F0007001299FF00C1124EB01CC24C394D12C66
:100100006991C7018C0D9D1D0E945300FFEFCF1A0E
:10011000DF0A8AE0C816D10499F7F80160816F5FA1
:10012000608390E080E0DF91CF911F910F91FF906D
:10013000EF90DF90CF900C945300DF91CF911F91FF
:100140000F91FF90EF90DF90CF900895EF92FF9284
:100150000F931F93CF93DF93E82E6115710539F448
:1001600089E090E00E944306BC01892B91F089E070
:10017000E89E70011124EB0101E010E0C701800F3F
:10018000911F0E945F0089930F5F1F4F0A30110576
:10019000A9F7DF91CF911F910F91FF90EF900895F4
:1001A0006F927F928F929F92AF92BF92CF92DF9287
:1001B000EF92FF920F931F93CF93DF938B01FB017D
:1001C0009081981708F463C0A82EB12CF9E08F9F96
:1001D000E00111247E012FEFE21AF20A981353C0B6
:1001E0002A9660E0C7010E9453004FEFE41AF40A18
:1001F000EC16FD06B1F7F80160816150608390E074
:1002000080E0DF91CF911F910F91FF90EF90DF90F1
:10021000CF90BF90AF909F908F907F906F900C94F5
:1002200053000196689E7001699EF00C11246701CD
:10023000F9E0CF1AD10888248394912CEC0EFD1E8E
:10024000CC0EDD1EC701880D991D0E945F00682F2E
:10025000C601880D991D0E9453002FEF821A920A41
:100260004AE08416910471F77394872D90E0F801A9
:100270006081462F4150550B9A012A193B0982177C
:1002800093077CF2BACF712C89E0682EEECFDF9114
:10029000CF911F910F91FF90EF90DF90CF90BF9083
:1002A000AF909F908F907F906F9008956F927F9204
:1002B0008F929F92AF92BF92CF92DF92EF92FF9276
:1002C0000F931F93CF93DF9300D0CDB7DEB7082FE6
:1002D0004B011A82198211E089E0782E662463941A
:1002E000011790F48A810F900F90DF91CF911F91A9
:1002F0000F91FF90EF90DF90CF90BF90AF909F90C5
:100300008F907F906F9008951982179D700111242E
:10031000670182E0C80ED11C5401EFEFAE1ABE0A8D
:10032000FAE0EF0EF11CC6010E945F00F501919109
:100330005F0189130FC089818F5F8983FFEFCF1A17
:10034000DF0ACE14DF0479F78981883029F46A82C4
:100350001F5FC6CF8981F1CF8A818A83F9CF0F933E
:100360001F93CF93DF93009769F0EC01219602E091
:1003700010E06991C8010E9453000F5F1F4F0A30BF
:100380001105B9F7DF91CF911F910F910895EF9269
:10039000FF920F931F93CF93DF930F92CDB7DEB7EA
:1003A00021E0298301967C0102E010E0C8010E944F
:1003B0005F00F70191917F01891779F019820F5F32
:1003C0001F4F0A30110591F789810F90DF91CF916E
:1003D0001F910F91FF90EF90089589818983EFCF4E
:1003E0001F921FB61F9211248F939F93EF93FF9339
:1003F0008091AA07E82FF0E09091C600E75DF84FE2
:1004000090839A3039F4108281E08093A80610928C
:10041000AA0707C01092A8068F5F87FDF8CF8093C8
:10042000AA07FF91EF919F918F911F901FBE1F9080
:1004300018951F921FB61F9211242F938F939F938D
:10044000EF93FF938091A907E82FF0E0E755F94F6C
:100450009081992321F020910101222389F080913C
:10046000C1008F7D8093C10081E080930101FF91E5
:10047000EF919F918F912F911F901FBE1F90189504
:100480008F5F8093A9079093C6008091A90787FF8B
:10049000EECF1092A907EBCF8F938FB78F93EF9387
:1004A000FF93E1ECF0E080818F7B8083FF91EF91FF
:1004B0008F918FBF8F911895E4E6F0E080818D7F5A
:1004C000808383E38093C4001092C5008EE2809302
:1004D000C20088E98093C10083B7817F83BF83B75F
:1004E000816083BF78940895CF93DF9320910101B9
:1004F000222301F12FB7F894FC01A9EAB6E0805855
:100500009F4F31913D93EF0121973881332319F0AB
:10051000E817F907B1F7109228071092A90710926F
:1005200001018091C10080668093C1002FBFDF91DF
:10053000CF9108958895DACF0C9474023FB7F89460
:10054000FC01DB01AC0140585F4F21918D91082ED9
:10055000000C990B2817190639F4222319F0E41717
:10056000F50799F781E001C080E03FBF0895BC0125
:1005700089E297E00C949E021F93CF93DF93182F8C
:1005800084E090E00E944306EC01892B69F11B8214
:100590001A3070F480E288838983105D1A83CE015B
:1005A0000E947402CE01DF91CF911F910C94DB0663
:1005B0004AE0812F642F0E94370620E3290F96EF2F
:1005C000910F9A3530F490E29883805D89832A8375
:1005D000E6CF812F64E60E943706805D8883892FED
:1005E000642F0E943706F1CFDF91CF911F910895BC
:1005F000EF92FF921F93CF93DF93CDB7DEB7609753
:100600000FB6F894DEBF0FBECDBF182F83E090E089
:100610000E9443067C01009709F441C0FC0112824C
:1006200080E1E8E0F1E0DE01119601900D928A95FB
:10063000E1F71031E8F480E2F7018083E1E0F0E0D7
:10064000EC0FFD1FE10FF11D8081F7018183C701D0
:100650000E947402C70160960FB6F894DEBF0FBE09
:10066000CDBFDF91CF911F91FF90EF900C94DB06EF
:10067000E12FE295EF7081E090E08C0F9D1F8E0FCF
:10068000911DFC018081F7018083E12FEF7081E0F3
:1006900090E08C0F9D1F8E0F911DFC01D5CF6096B1
:1006A0000FB6F894DEBF0FBECDBFDF91CF911F9183
:1006B000FF90EF9008950F931F93CF93DF93EC017A
:1006C000892B69F188818370813019F1882329F0A1
:1006D000823011F18BE791E002C087E591E00E9442
:1006E00074028E010F5F1F4F2996F80181918F01CF
:1006F0000E94F80287EE93E00E9474020C171D0717
:10070000A1F78CEB94E0DF91CF911F910F910C94A6
:10071000740283E691E0E3CF8FE691E0E0CFDF91D2
:10072000CF911F910F910895CF931092A806C09179
:10073000A806CC23E1F3009731F489E090E00E9411
:100740004306009761F14FB7F894A9E2B7E0FD01C5
:100750002181203219F5329627E0E733F207C1F7FD
:10076000E9E2F7E0208120532A30C0F4329627E0F6
:10077000E933F207B9F720E0E22FE695E80FF92F09
:10078000F11D3C91305331832E5F12962031A1F739
:100790004FBFFC0110828C2FCF9108954FBFC0E056
:1007A000FACF8EE891E00E94740289EA91E00E94FB
:1007B00074028DEE91E00E94740284E292E00E9445
:1007C00074028AE692E00E94740280EB92E00E943A
:1007D000740282EF92E00E94740289E293E00E9428
:1007E000740286E693E00C9474020F931F93CF93E8
:1007F0008C01C0E0892BD9F08CEA93E00E9474024E
:10080000C8010E949403C82F81110BC089EE93E0A8
:100810000E94740289E297E00E9474021092A80676
:1008200006C0C8010E94C701C82F882379F38C2F06
:10083000CF911F910F910895AF92BF92CF92DF9207
:10084000EF92FF920F931F93CF93DF93CDB7DEB755
:1008500029970FB6F894DEBF0FBECDBF6C0129E01B
:10086000B22E8E010F5F1F4F3AE0E32E44E6A42E16
:100870008091A806811111C029960FB6F894DEBFA9
:100880000FBECDBFDF91CF911F910F91FF90EF90E1
:10089000DF90CF90BF90AF900895F8018B2D11920B
:1008A0008A95E9F78AE094E00E94B702882351F123
:1008B000C8010E94F5038823D9F289E194E00E94DF
:1008C000740289E297E00E9474028CEB94E00E942B
:1008D0007402FF24F394F60180818F1518F41092AE
:1008E000A806C6CF8F2D0E94BC0287E294E00E942A
:1008F0007402B8018F2D0E94A600C8010E945B03FC
:10090000F394E9CF82E394E00E94B702882331F1A7
:10091000C8010E94F503882309F4AACF88E494E073
:100920000E947402C8010E949403811107C086E6E8
:1009300094E00E94740289E297E00DC0C8010E9411
:10094000AF018EE894E00E94740289E297E00E9471
:1009500074028BEB94E00E947402C1CF8EEB94E0A2
:100960000E94B7028823B1F0C8010E94F5038823D2
:1009700009F47ECF8FEC94E00E947402C8010E94BB
:1009800094038823A1F2B801C6010E9466008CEE90
:1009900094E0D9CF89E195E00E94B70281119FCF01
:1009A0008CE295E00E94B702811199CF8DE395E02A
:1009B0000E94B702882309F46AC0C8010E94F503A7
:1009C000882309F455CF8DE495E00E94740282E7F4
:1009D00095E00E947402FF24F394F60180818F1544
:1009E00040F51092A8068091A8068823E1F3909123
:1009F0002A0791112EC08091290790EDF92EF80E4B
:100A0000B8018F2D0E94A600B6018F2D0E94D00044
:100A100083ED95E00E9474028F2D0E94BC0280EE4F
:100A200095E00E947402C8010E945B0384EE95E089
:100A300092CF8F2D0E94BC0287E294E00E94740244
:100A4000B8018F2D0E94A600C8010E945B03F39499
:100A5000C4CF80912B07811108C080912907905144
:100A6000F92E8E9DF00C1124CBCF20912C07211153
:100A70000BC0805DF82E9E9DF00C112480912907FB
:100A80008A9DF00C1124BCCF86EA95E052CF8FEFFF
:100A900095E00E94B702811122CF86E096E00E9485
:100AA000B702882319F00E94D10319CF809129073A
:100AB000882309F414CF84E196E00E94740289E24D
:100AC00097E00E9474028CE296E045CFCDB7DEB786
:100AD000C355D1090FB6F894DEBF0FBECDBF0E943B
:100AE0005C028FE596E00E94740287EE93E00E941C
:100AF000740264961FAE64977E0189E4E80EF11CCF
:100B000019E0F701812F11928A95E9F7E8E1F1E008
:100B1000DE01A05CBF4F812F01900D928A95E1F715
:100B2000E1E2F1E0DE01D796812F01900D928A95E6
:100B3000E1F7EAE2F1E0DE019E96812F01900D924D
:100B40008A95E1F7E3E3F1E0DE019596812F0190CC
:100B50000D928A95E1F7ECE3F1E0DE015C96812FDE
:100B600001900D928A95E1F7E5E4F1E0DE015396FC
:100B7000812F01900D928A95E1F7EEE4F1E0DE011C
:100B80001A96812F01900D928A95E1F786E796E0FB
:100B90000E94740287EE93E00E947402BE01605CC2
:100BA0007F4FCE018D5A9F4F0E946600BE01695C47
:100BB0007F4FCE018D5A9F4F0E946600BE01625D3D
:100BC0007F4FCE018D5A9F4F0E946600BE016B5D24
:100BD0007F4FCE018D5A9F4F0E946600BE01645E1A
:100BE0007F4FCE018D5A9F4F0E946600BE016D5E01
:100BF0007F4FCE018D5A9F4F0E946600BE01665FF7
:100C00007F4FCE018D5A9F4F0E946600E8E1F1E0D0
:100C1000DE01119601900D921A95E1F7CE01019631
:100C20000E94AF0110E0812F0E94BC0288E294E094
:100C30000E947402B701812F0E94A600C7010E9482
:100C40005B031F5F64968FAD6497811760F784EA3A
:100C500096E00E94740264968FAD649763968FAF9E
:100C60006397CE018E5A9F4F0E941C04FACF991BA6
:100C700079E004C0991F961708F0961B881F7A9593
:100C8000C9F7809508950F931F93CF93DF93823018
:100C9000910510F482E090E0E091AD07F091AE078D
:100CA00020E030E0A0E0B0E0309719F140815181C0
:100CB0000281138148175907C8F08417950769F412
:100CC000109731F012960C93129713961C9327C02D
:100CD0000093AD071093AE0722C02115310519F01E
:100CE0004217530718F49A01BD01EF01DF01F80123
:100CF000DBCF21153105F9F0281B390B24303105E4
:100D000080F48A819B816115710521F0FB01938339
:100D1000828304C09093AE078093AD07FE013296A4
:100D200044C0FE01E20FF31F8193919322503109D9
:100D3000398328833AC02091AB073091AC07232B2D
:100D400041F420910401309105013093AC072093C8
:100D5000AB0720910201309103012115310541F4C7
:100D60002DB73EB74091060150910701241B350B6A
:100D7000E091AB07F091AC07E217F307A0F42E1B4C
:100D80003F0B2817390778F0AC014E5F5F4F2417EF
:100D9000350748F04E0F5F1F5093AC074093AB07E9
:100DA0008193919302C0E0E0F0E0CF01DF91CF9119
:100DB0001F910F910895CF93DF93009709F481C09D
:100DC000FC01329713821282A091AD07B091AE0759
:100DD000109781F420813181820F931F2091AB07FE
:100DE0003091AC072817390751F5F093AC07E09321
:100DF000AB0767C0ED0120E030E0CE17DF0740F41D
:100E00004A815B819E0141155105F1F0EA01F5CF60
:100E1000D383C28340815181840F951FC817D9079E
:100E200059F488819981840F951F0296918380835C
:100E30008A819B81938382832115310529F4F09364
:100E4000AE07E093AD073DC0E901FB83EA8349911A
:100E50005991C40FD51FEC17FD0761F48081918172
:100E6000840F951F0296E90199838883828193817B
:100E70009B838A83E0E0F0E012968D919C9113971A
:100E8000009719F0FD01DC01F7CF8D919C9111972E
:100E90009D012E5F3F4F820F931F2091AB07309132
:100EA000AC072817390769F4309729F41092AE0778
:100EB0001092AD0702C013821282B093AC07A093C8
:0C0EC000AB07DF91CF910895F894FFCFAD
:100ECC0001010000AF0720003031323334353637A2
:100EDC0038394142434445460001020304050607E4
:100EEC000801020406080A0C0E10020306090C0F76
:100EFC0012151803050A0F14191E232801050A0FD1
:100F0C0014021E232802060C12181A20262C021773
:100F1C00322314021F212A50617373776F7264207D
:100F2C00202000312D57697265202020202000528E
:100F3C004649442020202020202000556E6B6E6FE7
:100F4C00776E206B657920747970653A20000A0AF7
:100F5C004176616961626C65205541525420636F22
:100F6C006D6D616E64733A0A007761746368206119
:100F7C006C6C206B657973202861646D696E292017
:100F8C0020202020202020202D207072696E7420BB
:100F9C0061206C697374206F6620616C6C5F617684
:100FAC00616961626C65206B6579730A00757064A8
:100FBC006174652061646D696E2070617373776F05
:100FCC007264202861646D696E2920202D2063686D
:100FDC00616E6765207468652061646D696E206B55
:100FEC0065790A00616464206E65772070617373A3
:100FFC00776F7264202861646D696E29202020202F
:10100C002020202020202D206164642061206E652A
:10101C0077207573657220554152542F6B65796238
:10102C006F617264206B65790A00616464206E657F
:10103C007720312D57697265206B657920286164A2
:10104C006D696E2920202020202020202D20616415
:10105C00642061206E6577207573657220312D5781
:10106C0069726520646576696365206B65790A0031
:10107C00616464206E65772052464944206B657923
:10108C00202861646D696E292020202020202020DA
:10109C002D206164642061206E6577207573657204
:1010AC00205246494420646576696365206B6579F6
:1010BC000A0064656C6574652075736572206B65D8
:1010CC0079202861646D696E29202D2064656C651A
:1010DC007465206F6E65206F66206578697374691E
:1010EC006E67206B6579730A00636F6D6D616E645A
:1010FC0073206C6973742020202020202020202055
:10110C0020202020202020202020202D20776174DA
:10111C006368207468697320636F6D6D616E642001
:10112C006C6973740A00756E6C6F636B2028757331
:10113C006572292020202020202020202020202003
:10114C00202020202020202020202D20756E6C6F48
:10115C00636B20746865206C6F636B20666F722004
:10116C0061206665772074696D650A000A456E74A6
:10117C0065722061646D696E27732070617373777B
:10118C006F7264202865616368206E756D6265728C
:10119C00207365706172617465642062792073706C
:1011AC0061636573293A0A2000496E76616C696443
:1011BC002070617373776F72642C20796F75206562
:1011CC006E74657265643A200A00776174636820F6
:1011DC00616C6C206B65797300596F7520656E744A
:1011EC00657265643A2000206B6579203D202020D3
:1011FC0020007570646174652061646D696E207087
:10120C00617373776F726400456E746572206E65DE
:10121C00772061646D696E27732070617373776FCB
:10122C0072643A200A00496E76616C6964207061C0
:10123C007373776F726420666F726D61742C207992
:10124C006F7520656E74657265643A200A000A41F8
:10125C00646D696E732070617373776F726420773D
:10126C0061732073756363657366756C6C79207537
:10127C0070646174656420746F0A000A0A0061640A
:10128C0064206E65772070617373776F72640045AC
:10129C006E746572206E6577207573657227732086
:1012AC0070617373776F72643A200A004E65772011
:1012BC007573657227732070617373776F72642016
:1012CC007761732073756363657366756C6C7920D5
:1012DC0061646465643A200A00616464206E657719
:1012EC0020312D57697265206B657900616464202B
:1012FC006E65772052464944206B65790064656CB5
:10130C006574652075736572206B6579004865722C
:10131C006520796F752063616E2073656520616C43
:10132C006C206176616961626C65206B6579732EE6
:10133C002000456E74657220746865206E756D6250
:10134C006572206F66206B65792C207768696368FD
:10135C002073686F756C642062652064656C6574BD
:10136C0065643A200A000A496E76616C6964206BE8
:10137C006579206E756D62657220666F726D617431
:10138C002C20796F7520656E74657265643A202027
:10139C002020000A4B6579206E756D626572200005
:1013AC003A2020000A20776173207375636365739C
:1013BC0066756C6C792064656C657465640A00757F
:1013CC006E6C6F636B00636F6D6D616E6473206C1C
:1013DC00697374000A556E6B6E6F776E20636F6D58
:1013EC006D616E643A202020202020000A456E7426
:1013FC0065722022636F6D6D616E6473206C69730E
:10140C00742220746F20776174636820617661693F
:10141C0061626C6520636F6D6D616E64730A000AA6
:10142C0048656C6C6F2066726F6D20617672206CF3
:10143C006F636B210A000A5F5F5F5F5F5F5F5F5FD7
:10144C005F5F5F5F5F5F5F5F5F5F5F5F5F5F5F5FA0
:10145C005F5F5F5F5F5F5F5F5F5F5F5F5F5F5F5F90
:08146C005F0A2000656E6400B8
:00000001FF
