:100000000C9470020C948D020C948D020C948D0251
:100010000C948D020C948D020C948D020C948D0224
:100020000C948D020C948D020C948D020C948D0214
:100030000C948D020C948D020C948D020C948D0204
:100040000C948D020C948D020C948D020C948D02F4
:100050000C948D020C948D020C948D020C948D02E4
:100060000C94EF020C948D02FFFFBF8FCFEFF7FFD0
:100070007F2F0FFFFCF800617D705C1F3F7F7F00CA
:10008000007E170F0F00FFFFBF8FC7EFF73F3F0F37
:100090000FFFFCF000617D705C1F3F7F00000000DF
:1000A000170F0F00FFFFBF0FEFEF0707070F0FFF3F
:1000B000FCF80061797C7F3F0F0000000000170F03
:1000C0000F00FFFFBF1F0F0F0707070F0FFFFCF801
:1000D00000617D604000000000000000170F0F006D
:1000E0000000000000000000000000000000000010
:1000F000808080C0C0C0C0E0E0E0E0F0F0F0F0F050
:10010000F0F0F0B01010101030302060C0C0C0C04F
:10011000E0E0E0E0F0F0F0F0787838B89C9C9CBC2F
:10012000FCFCFCFCF4F4F4ECEC7C7C3C98F8F8F07F
:10013000808080808080808080808000000000003F
:1001400000000000000000000000000000000000AF
:10015000000000000000000000000000000000009F
:10016000000000000080C0E0F0F8F8FCFEFEFFFF99
:10017000FFFFFFFFFFFFFFFFFFFFFFFFFFFFFFFF8F
:10018000FFFFFFFFFFFFFFFFFFFFFFFFFFFFFFFF7F
:10019000FFFFFFFFFFFFFFFFFFFFFFFFFFFFFFFF6F
:1001A000FFFFFFFFFFFFFFFFFEFEFEFFFFFFFFFF62
:1001B000FFFFFFFFFFFFFFFF2F0F0F0F8F8F0303C7
:1001C000030302020606060604040C0808181010B1
:1001D000206060C0800000000000000000000000FF
:1001E0000000F0FCFF7FFFFFFFFFFFFFFFFFFFFFAF
:1001F000FFFFFFFFFFFFFFFFFFFFFF7F3F7FFFFFCF
:10020000FFFFFFFFFFFFFFFFFFFFFFFFFFFFFFFFFE
:10021000FFFFFFFFFFFFFFFFFF1F1F1F0F0F1F1F2E
:100220003F7FFFFF030303070FFFFFFFFFFFFFFFFA
:10023000FFFFFFFFFFFFFFFFFEFEFEFEFFFFFFFFD2
:10024000FEE6E040000000000000000000000000AA
:1002500000000000010102060C1830C08000000000
:1002600000007FFFFFFFFEFFFFFFFFFFFFFFFFFF1D
:10027000FFFFFFFFFFFF3F1F0F87E3F9FC9F4303D3
:10028000234303071FFFFFFFFFFF7F7F7F7FFFFFEA
:10029000FFFFEF0F8FFFDF1F2FFCF8804060000093
:1002A00080C1FBC30000000000FFFFFFFFFFFFFF56
:1002B000FFFFFFFFFFFFFFFFFFFFFFFFFFFFFFFF4E
:1002C000FFFFFFC000000000000000000000000071
:1002D000000000000000000000000000031EF8C045
:1002E0000000003F7FEFFFFFFFFFFFFFFFFFFFFF6B
:1002F000F180C0E7C3C080000EFFFF3F1301003252
:10030000FFFFFFFFFFFFFFFFDF818080C0C1C1C192
:10031000C1C1C1C1FDFDFDFCFAFAFFEFFFFEFFFF09
:10032000FFFFFFFFF0F0FCFEFFFFFFFFFFFFFFFFFF
:10033000FFFFFFFFFFFFFFFFFFFFFFFFFFFFFFFFCD
:10034000FFC70100000000000000000000000000E6
:100350000000000000000000000000000000FF3F5F
:10036000000000000000010307070F0F1F3F7F7F01
:10037000FFFFFFFFFFFFFFFCE0C3C1C0C0FEFFFFA8
:10038000FFFFFFFFFFFFFFFFFFFFFFFFFFFFFFFF7D
:10039000FFFFFFFFFFFF07830301010101010323AB
:1003A00063E383070F0F1F3FFFFFFFFFFFFFFFFF09
:1003B000FFFFFFFFFFFFFFFFFFFFFFFFFFFFFFFE4E
:1003C000CF9F19989080800000000000000000007E
:1003D00000000000000000000080C0301C07010089
:1003E000000000000000000000000000000000000D
:1003F00000010103030307070F0F0F1F1F1F1F1F1C
:100400001F1F1F1F1F1F3F7F7F7FFFFFFFFFFFFF7C
:10041000FFFFFFFFFFFFFFFFFFF0E8C8E0E0F0F0A5
:10042000FEFF3F00000080D8FFFFFFFFFFFFFFFF40
:10043000FFFFFFFFFFFFFFFFFFFFFFFFFFFFFFFFCC
:10044000FFFFFEFEF8F9F3F3E4E0E0E0E0E0E0E0D7
:10045000E070301018080C060301000000000000D6
:10046000000000000000000000000000000000008C
:10047000000000000000000000000000000000007C
:100480000000000000000000000000000001010169
:10049000010103030307070F0F0F1F1F1F1F1F1F5C
:1004A0001F1F1F1F1F1F1F1F1F1F3F3F3F3F3F3F9C
:1004B0003F3F3F3F3F3F3F3F3F3F3F3F1F1F1F1FCC
:1004C0001F1F0F0F0F0F070707070303010100008E
:1004D000000000000000000000000000000000001C
:1004E00011241FBECFEFD8E0DEBFCDBF11E0A0E0EA
:1004F000B1E0EEE8FCE002C005900D92A23AB1072F
:10050000D9F721E0A2EAB1E001C01D92AE3AB207EC
:10051000E1F70E947A030C9445060C9400001092B7
:10052000A5011092A401209164002F77209364000C
:100530009B01AC01220F331F441F551F60E074E282
:1005400084EF90E00E942306BA01A90148505109A6
:100550006109710980E04F3F51056105710559F04E
:1005600050F092E076956795579547959A95D1F713
:100570008F5F843081F74093B8009091B9009C7FE1
:100580008370892B8093B90085E08093BC00089527
:100590009FB7F894E091A401F091A501EF2BE9F445
:1005A0007093AC016093AB015093AA014093A901F1
:1005B0003093A7012093A60122E030E03093A501FB
:1005C0002093A401880F8093A8018091BC00806AC9
:1005D0008093BC0081E09FBF089580E0FCCF1F9214
:1005E0000F920FB60F9211242F933F934F935F9367
:1005F0006F937F938F939F93AF93BF93EF93FF93EB
:100600008091A4019091A5018230910519F198F093
:10061000039789F1FF91EF91BF91AF919F918F91D6
:100620007F916F915F914F913F912F910F900FBEEE
:100630000F901F9018958091BC0080698093BC003A
:100640001092A5011092A401E091A601F091A701DA
:100650000995E0CF8091A8018093BB008091BC00F8
:100660008F7580688093BC0083E090E09093A50133
:100670008093A401CFCFE091AB01F091AC01CF0109
:1006800001969093AC018093AB0180818093BB0075
:100690008091A9019091AA0101979093AA0180935A
:1006A000A901892B31F481E090E09093A50180931A
:1006B000A4018091BC0080688093BC00ABCF1092F5
:1006C000AD010895CF93DF930F92CDB7DEB788EEDB
:1006D00093E02FEF29839C010197232B21F40F90A6
:1006E000DF91CF91089529813FEF320F3983211196
:1006F000FACFF1CF789460E271EA87E090E00E944F
:100700008F0281E08093AD0100E02FE533E044E00B
:1007100050E065E971E08CE30E94C8028091AD0170
:100720008111FCCF81E08093AD0100E02FE533E043
:1007300042E050E06FE971E08CE30E94C8028091D2
:10074000AD018111FCCF81E08093AD0100E02FE588
:1007500033E044E050E06BE971E08CE30E94C802B2
:100760008091AD018111FCCF81E08093AD0100E06B
:100770002FE533E042E050E061E871E08CE30E9455
:10078000C8028091AD018111FCCF40EEE42E40E023
:10079000F42EC0E0D1E08C2F806B80938C01D0933D
:1007A000AD0100E02FE533E042E050E06BE871E09E
:1007B0008CE30E94C8028091AD018111FCCFD093DF
:1007C000AD0100E02FE533E044E050E067E871E080
:1007D0008CE30E94C8028091AD018111FCCFA1E0A1
:1007E000B1E0F70184918D93319681E0A138B8078B
:1007F000C9F7D093AD0100E02FE533E041E850E0C8
:1008000060E071E08CE30E94C8028091AD0181112B
:10081000FCCFCF5F80E8E80EF11CC83009F0BBCFF9
:10082000C1E00E94620338E6E32E30E0F32E670158
:10083000D2E08D2F806B80938C01C093AD0100E0DE
:100840002FE533E042E050E06BE871E08CE30E947A
:10085000C8028091AD018111FCCFC093AD0100E0D1
:100860002FE533E044E050E063E871E08CE30E9460
:10087000C8028091AD018111FCCFA1E0B1E0F60189
:1008800084918D93319681E0A031B807C9F7C09368
:10089000AD0100E02FE533E040E150E060E071E0C1
:1008A0008CE30E94C8028091AD018111FCCF8FE0E2
:1008B000C80ED11CD33009F0BAC10E94620326E8E9
:1008C000C22E20E0D22E5601D2E08D2F806B809375
:1008D0008C01C093AD0100E02FE533E042E050E031
:1008E0006BE871E08CE30E94C8028091AD01811138
:1008F000FCCFC093AD0100E02FE533E044E050E0D1
:1009000063E871E08CE30E94C8028091AD0181111F
:10091000FCCFA1E0B1E0F50184918D93319681E0A7
:10092000A031B807C9F7C093AD0100E02FE533E06F
:1009300040E150E060E071E08CE30E94C8028091E9
:10094000AD018111FCCF8FE0A80EB11CD33009F0AE
:1009500070C10E94620394EAA92E90E0B92E45016D
:10096000D2E08D2F806B80938C01C093AD0100E0AD
:100970002FE533E042E050E06BE871E08CE30E9449
:10098000C8028091AD018111FCCFC093AD0100E0A0
:100990002FE533E044E050E063E871E08CE30E942F
:1009A000C8028091AD018111FCCFA1E0B1E0F4015A
:1009B00084918D93319681E0A031B807C9F7C09337
:1009C000AD0100E02FE533E040E150E060E071E090
:1009D0008CE30E94C8028091AD018111FCCF8FE0B1
:1009E000880E911CD33009F026C10E94620382EC6C
:1009F000882E80E0982ED2E08D2F806B80938C0122
:100A0000C093AD0100E02FE533E042E050E06BE839
:100A100071E08CE30E94C8028091AD018111FCCF8E
:100A2000C093AD0100E02FE533E044E050E063E81F
:100A300071E08CE30E94C8028091AD018111FCCF6E
:100A4000A1E0B1E0F40184918D93319681E0A03171
:100A5000B807C9F7C093AD0100E02FE533E040E1EE
:100A600050E060E071E08CE30E94C8028091AD012B
:100A70008111FCCF8FE0880E911CD33009F0DDC0CE
:100A80000E946203D2E08D2F806B80938C01C09313
:100A9000AD0100E02FE533E042E050E06BE871E0AB
:100AA0008CE30E94C8028091AD018111FCCFC093FC
:100AB000AD0100E02FE533E044E050E063E871E091
:100AC0008CE30E94C8028091AD018111FCCFA1E0AE
:100AD000B1E0F50184918D93319681E0A031B807A2
:100AE000C9F7C093AD0100E02FE533E040E150E0ED
:100AF00060E071E08CE30E94C8028091AD01811139
:100B0000FCCF8FE0A80EB11CD33009F098C00E9432
:100B10006203D2E08D2F806B80938C01C093AD0176
:100B200000E02FE533E042E050E06BE871E08CE359
:100B30000E94C8028091AD018111FCCFC093AD012C
:100B400000E02FE533E044E050E063E871E08CE33F
:100B50000E94C8028091AD018111FCCFA1E0B1E0FB
:100B6000F60184918D93319681E0A031B807C9F7E1
:100B7000C093AD0100E02FE533E040E150E060E0DC
:100B800071E08CE30E94C8028091AD018111FCCF1D
:100B90008FE0C80ED11CD33009F053C00E9462030D
:100BA000D2E08D2F806B80938C01C093AD0100E06B
:100BB0002FE533E042E050E06BE871E08CE30E9407
:100BC000C8028091AD018111FCCFC093AD0100E05E
:100BD0002FE533E044E050E063E871E08CE30E94ED
:100BE000C8028091AD018111FCCFA1E0B1E0F70115
:100BF00084918D93319681E0A031B807C9F7C093F5
:100C0000AD0100E02FE533E040E150E060E071E04D
:100C10008CE30E94C8028091AD018111FCCF8FE06E
:100C2000E80EF11CD33009F4FCCDD3E0BACFD3E009
:100C300000CED3E04ACED3E094CED3E0DDCED3E0F5
:100C400022CFD3E067CFA1E21A2EAA1BBB1BFD0166
:100C50000DC0AA1FBB1FEE1FFF1FA217B307E4079B
:100C6000F50720F0A21BB30BE40BF50B661F771FF3
:100C7000881F991F1A9469F76095709580959095D3
:0E0C80009B01AC01BD01CF010895F894FFCF98
:100C8E004000000000000000000000000000000016
:100C9E000000000000000000000000000000000046
:100CAE000000000000000000000000000000000036
:100CBE000000000000000000000000000000000026
:100CCE000000000000000000000000000000000016
:100CDE000000000000000000000000000000000006
:100CEE0000000000000000000000000000000000F6
:100CFE0000000000000000000000000000000000E6
:100D0E000080A6800880138000801080B080DA807A
:100D1E000280208002808D801480A5808180FF80DB
:020D2E00AF0014
:00000001FF
