:100000000C9434000C9451000C9451000C94510049
:100010000C9451000C9460030C9451000C9451000A
:100020000C9451000C9451000C9451000C94390321
:100030000C9451000C9451000C9451000C945100FC
:100040000C9451000C9451000C9451000C945100EC
:100050000C9451000C9451000C9451000C945100DC
:100060000C9451000C94510011241FBECFEFD8E026
:10007000DEBFCDBF11E0A0E0B1E0ECEAF8E002C0E5
:1000800005900D92AE32B107D9F721E0AEE2B1E0B2
:1000900001C01D92A833B207E1F70E94F1030C944E
:1000A00054040C940000CF93DF939C01962F872F6C
:1000B000CAE0D0E0E92FF82FC901BE010E942C044C
:1000C00081939E2F8F2F2A30310518F4DF91CF9125
:1000D00008959B01EFCFEF92FF921F93CF93DF9391
:1000E00000D000D000D0CDB7DEB79A8389839C01C1
:1000F0002D5F3F4F3C832B8306969E838D83CE01DD
:1001000001967C01BE01695F7F4F41E050E0D7015D
:10011000ED91FD917D0180819181DC0114962D91FD
:100120003C91D9011C918281DA0102C0AA0FBB1F48
:100130008A95E2F7CD0180958123D9018C93808146
:100140009181DC012D913C91D9018C919281FA0130
:1001500001C0EE0F9A95EAF78E2B8C936E157F05F2
:10016000B1F626960FB6F894DEBF0FBECDBFDF9175
:10017000CF911F91FF90EF900895DF92EF92FF9241
:100180000F931F93CF93DF93EC01D62E88E0E82ED8
:10019000F12C01E010E02D2D221F2227221FDD0C63
:1001A000EE81FF810480F581E02D8885A80102C0E1
:1001B000440F551F8A95E2F7CA0190812223B1F1BD
:1001C000892B8083E881F9810480F581E02D2081ED
:1001D0008A81A80102C0440F551F8A95E2F7CA011F
:1001E000809582238083E985FA8581E00995E881FD
:1001F000F9810480F581E02D80819A81980101C008
:10020000220F9A95EAF7822B8083E985FA8581E0AF
:10021000099551E0E51AF10809F0BDCFDF91CF91C2
:100220001F910F91FF90EF90DF90089580958923A3
:10023000C8CF0F931F93CF93DF93EC01EB81FC8129
:100240000480F581E02D20818D8101E010E0A8017E
:1002500002C0440F551F8A95E2F7CA018095822398
:100260008083E985FA8581E00995EB81FC81048032
:10027000F581E02D80819D8101C0000F9A95EAF7FC
:10028000082B0083E985FA8581E0DF91CF911F91EA
:100290000F910994CF92DF92FF920F931F93CF9308
:1002A000DF93EC016B018B010C5F1F4FFF24F39474
:1002B000F80162918F018D85811101C06095CE0199
:1002C0000E94BD006F2DCE010E94BD00FF0CCE012B
:1002D0000E941901EB85FC858AE090E009950C15D8
:1002E0001D0531F7DF91CF911F910F91FF90DF90A6
:1002F000CF900895FC01608341832283138214828E
:10030000158216821782108611860895FC01638378
:1003100044830895FC0180818C3320F081818F5FBC
:100320008183108281818C3320F082818F5F828370
:1003300011828281883108F0128283818C3308F027
:1003400013828481883108F014828581813079F4A8
:1003500086818C3320F087818F5F87831682878127
:100360008C3350F080858F5F8087178208958111CC
:1003700003C01682178210860895FC019185923081
:1003800010F0118608959F5F91870895FC01958173
:10039000923010F0158208959F5F9583089589E04B
:1003A0009DE39093890080938800E1E8F0E08081EC
:1003B00088608083808185608083EFE6F0E08081C3
:1003C0008260808308951AB8E8E6F0E08081846056
:1003D00080838EEF80936D000895FC01908121E071
:1003E00030E001C0220F4A95EAF7922B9083FB017F
:1003F00080812095282320830895FC01908121E0AD
:1004000030E001C0220F6A95EAF7922790830895A1
:10041000CF93DF9300D00F92CDB7DEB79B838A8353
:100420008FEF89838A819B819C01215031093B8315
:100430002A83892B31F40F900F900F90DF91CF9189
:10044000089589819FEF980F99838111FACFEACFA0
:10045000CF92DF92EF92FF920F931F93CF93DF9390
:10046000CDB7DEB728970FB6F894DEBF0FBECDBF6D
:100470007C016B018A01CA010E948A01F801818511
:10048000811156C081812AE0622F0E942004E82F4A
:10049000F0E0ED5DFE4F80818D83E92FF0E0ED5DB2
:1004A000FE4F808180588E83F80180810E94200455
:1004B000E82FF0E0ED5DFE4F80818F83E92FF0E0C3
:1004C000ED5DFE4F80818887F701858599E3811175
:1004D00096EC998381958A83F80182816AE00E9473
:1004E0002004E82FF0E0ED5DFE4F80818B83E92F43
:1004F000F0E0ED5DFE4F80818C83BE016B5F7F4F2E
:10050000C7010E944A01BE016F5F7F4FC6010E9472
:100510004A0128960FB6F894DEBF0FBECDBFDF911B
:10052000CF911F910F91FF90EF90DF90CF900895A2
:10053000813001F583816AE00E942004E82FF0E019
:10054000ED5DFE4F80818D83E92FF0E0ED5DFE4F84
:1005500080818E83F7019585892F81958F83888788
:10056000911106C097E799838A83F8018481B6CFF9
:1005700098E8F9CF823009F687812AE0622F0E943D
:100580002004E82FF0E0ED5DFE4F80818D83E92FA0
:10059000F0E0ED5DFE4F808180588E83F80186810A
:1005A0000E942004E82FF0E0ED5DFE4F80818F83F4
:1005B000E92FF0E0ED5DFE4F80818887F7018585AA
:1005C000811130C083EB8983F8012085822F64E696
:1005D0000E942004482F50E0FA01ED5DFE4F80811B
:1005E0008A8330E06CE96403C001659F900D11249B
:1005F000820F931F6AE070E00E9440047727FB019E
:10060000ED5DFE4F80818B8346EF4603C001479F1F
:10061000900D1124820F931F64E670E00E94400445
:10062000FC0167CF8CE4CFCF0F931F93CF938C0146
:10063000C62FFC01808190E002C0959587956A9550
:10064000E2F780FF11C088EC90E00E940802F801F8
:10065000808190E002C095958795CA95E2F78170F8
:10066000CF911F910F91089580E0FACF8A95F1F70D
:1006700008958F938FB78F939F9380912E018F5FF3
:1006800080932E0180913301813029F480913401CF
:100690008F5F8093340190912F01809131019813E5
:1006A0000AC09091300180913201981304C088B142
:1006B00090E2892788B99F918F918FBF8F9118956C
:1006C0001F920F920FB60F9211242F933F934F93C7
:1006D0005F936F937F938F939F93AF93BF93CF93CA
:1006E000EF93FF9380912201882309F475C08091D4
:1006F0002201C1E08C278093220162E089E290E030
:100700000E9414038823E1F0809137018230A0F029
:1007100010923701FF91EF91CF91BF91AF919F91CF
:100720008F917F916F915F914F913F912F910F909A
:100730000FBE0F901F9018958F5F80933701EACFFF
:1007400063E089E290E00E941403882331F08091F5
:100750002F018F5F80932F01DDCF64E089E290E06D
:100760000E941403882331F0809130018F5F8093C1
:100770003001D0CF65E089E290E00E941403882325
:1007800031F0809131018F5F80933101C3CF66E0FA
:1007900089E290E00E941403882331F080913201B5
:1007A0008F5F80933201B6CF67E089E290E00E94CC
:1007B0001403882359F080913301823018F010928D
:1007C0003301A8CF8F5F80933301A4CF80912201A2
:1007D0008C27809322019ECF8091220191E089276E
:1007E000F8CF8EE091E00E946B0080E091E00E94E3
:1007F0006B000E94CF010E94E301359A4598109248
:100800002E018AE080932F0181E1809330011092C4
:10081000330110923401109235011092360110927A
:1008200037019FE0909331018093320178944EE23A
:1008300051E060E071E08EE091E00E942802F7CF85
:10084000991B79E004C0991F961708F0961B881F22
:100850007A95C9F780950895AA1BBB1B51E107C083
:10086000AA1FBB1FA617B70710F0A61BB70B881F40
:10087000991F5A95A9F780959095BC01CD010895CF
:1008800097FB072E16F4009407D077FD09D00E943D
:100890002C0407FC05D03EF4909581959F4F089558
:0C08A000709561957F4F0895F894FFCF8C
:1008AC001C01001C01011C010336030802011C0180
:1008BC00001C01011C010236030802012400230064
:0E08CC00250001C0F9A4B0999282F880900036
:00000001FF
