:100000000C94B4000C9454050C94D1000C94D100C1
:100010000C94D1000C94D1000C94D1000C94D1001C
:100020000C94D1000C9467040C94D1000C94D10072
:100030000C94D1000C94D1000C94D1000C94D100FC
:100040000C94D1000C94D1000C94FA070C94420645
:100050000C9475060C94D1000C94D1000C94D10032
:100060000C94D1000C94D100005EBCE2613FDD83B2
:10007000C29C7E20A3FD1F419DC3217FFCA2401E88
:100080005F01E3BD3E6082DC237D9FC1421CFEA078
:10009000E1BF5D0380DE3C62BEE0025CDF81633D68
:1000A0007C22C09E1D43A1FF4618FAA427799BC558
:1000B00084DA3866E5BB5907DB856739BAE4065848
:1000C0001947A5FB7826C49A653BD987045AB8E638
:1000D000A7F91B45C6987A24F8A6441A99C7257B28
:1000E0003A6486D85B05E7B98CD2306EEDB3510F18
:1000F0004E10F2AC2F7193CD114FADF3702ECC9208
:10010000D38D6F31B2EC0E50AFF1134DCE90722CF7
:100110006D33D18F0C52B0EE326C8ED0530DEFB1E7
:10012000F0AE4C1291CF2D73CA947628ABF51749D7
:100130000856B4EA6937D58B5709EBB536688AD4C7
:1001400095CB2977F4AA4816E9B7550B88D6346AB7
:100150002B7597C94A14F6A8742AC896154BA9F7A7
:10016000B6E80A54D7896B3511241FBECFEFD8E00B
:10017000DEBFCDBF12E0A0E0B1E0ECEEF4E102C0E2
:1001800005900D92A035B107D9F722E0A0E5B2E0C5
:1001900001C01D92AA39B207E1F70E943E080C94F3
:1001A000740A0C940000DC01EC916E27E62FF0E05D
:1001B000E859FF4FE491EC930895EF92FF920F936B
:1001C0001F93CF93DF930F92CDB7DEB719828C01C7
:1001D0007C01E60EF71E0E151F0549F489810F906C
:1001E000DF91CF911F910F91FF90EF900895F8014B
:1001F00061918F01CE0101960E94D300ECCF4F9206
:100200005F926F927F928F92AF92CF92DF92EF9236
:100210000F931F93CF93DF93CDB7DEB7FC012B0174
:100220003A016E2D70E0C6010E942909892BB9F5AB
:100230008FE0C81AD1088EE2C816D10480F54114A7
:10024000510469F16114710451F12115310539F13D
:100250000115110521F184EC8A0D8D3300F58FEF26
:10026000880D8F30E0F45182408273826282358340
:100270002483178306836087E186A286838690E0C5
:1002800080E0DF91CF911F910F91EF90DF90CF90A1
:10029000AF908F907F906F905F904F90089581E026
:1002A00090E0EFCF0F931F93CF93DF938C01DC018E
:1002B0001896CC91D0E0209771F4D80119968C91C2
:1002C000B82FBC9FC001BD9F900D1124DF91CF912D
:1002D0001F910F910895D8011496ED91FC91099505
:1002E0008111EBCFF80181850680F781E02D90E048
:1002F00009952197E0CF0F931F93CF93DF93EC01E4
:10030000E881F9810995EE81FF8180EE91E0099500
:10031000EA81FB810995CE010E9452018C01892B53
:10032000B1F0EE81FF818CE390E00995EC81FD81D5
:100330000995811113C0EE81FF8184EA91E0801B51
:10034000910B0995EC81FD81099581110AC082E02C
:1003500090E0DF91CF911F910F91089583E090E09D
:10036000F8CF90E080E0F5CF1F93CF93DF93EC01BF
:10037000162FE881F9810995EE81FF81111111C0D5
:100380008A8590E00995EA81FB810995CE010E945A
:100390005201892BE1F482E090E0DF91CF911F912F
:1003A00008958B8590E00995EA81FB810995CE013E
:1003B0000E945201009779F32A853B85231B330B5A
:1003C000EE81FF81A901481B590BCA01099590E0F4
:1003D00080E0E3CFCF92DF92EF92FF920F931F93D3
:1003E000CF93DF93EC017B01042FE881F98109951C
:1003F0008B85EE81FF8190E00995EA81FB8109956B
:100400009B85EE81FF812FE030E0A901491B510956
:10041000CA010995D12CC12C10E0EC81FD81099510
:100420000C2C01C0880F0A94EAF7182B5FEFC51A4D
:10043000D50A88E0C816D10481F750E040E080E09A
:10044000212F30E0B901042E02C0759567950A94FA
:10045000E2F760FD8F5F4F5F5F4F4830510591F7C6
:1004600091E0853008F490E0F70190831EEF180FBB
:10047000163010F401110AC08A85EE81FF818F5079
:10048000990B099590E080E0163010F484E090E03C
:10049000DF91CF911F910F91FF90EF90DF90CF9060
:1004A0000895BF92CF92DF92EF92FF920F931F9326
:1004B000CF93DF937C01B42ED0E0C0E0CC24C39472
:1004C000D12C062F10E0C6010C2E02C0880F991FF8
:1004D0000A94E2F7802391230C2E02C0959587950C
:1004E0000A94E2F761E0892B09F460E0C7010E94F9
:1004F000B401009711F0B11004C02196C830D105A5
:1005000011F7DF91CF911F910F91FF90EF90DF9046
:10051000CF90BF900895BF92CF92DF92EF92FF925B
:100520000F931F93CF93DF930F92CDB7DEB77C016C
:100530008B01B42EFB011082D12CC12C4B2DBE019E
:100540006F5F7F4FC7010E94EA0129810C2C01C017
:10055000220F0A94EAF7F8013081232B20830097B9
:1005600011F0B11007C0FFEFCF1ADF0A28E0C21662
:10057000D10421F70F90DF91CF911F910F91FF9040
:10058000EF90DF90CF90BF9008958F929F92AF929F
:10059000BF92CF92DF92EF92FF920F931F93CF9370
:1005A000DF930F92CDB7DEB76C01162F972E5A014D
:1005B000211139C0402F63E3C6010E945102009708
:1005C00009F043C0E12EF92C87E0882E810E402FE0
:1005D000B701C6010E948B02009711F0011127C0DC
:1005E0008FEFE81AF80A8E10F2CF1982402FBE0161
:1005F0006F5F7F4FC6010E948B02009711F00111BF
:1006000016C0A114B10419F08981F501808367E057
:1006100070E0812F992D0E94DD0099819817C9F013
:1006200085E090E004C00E947B01009719F20F90D2
:10063000DF91CF911F910F91FF90EF90DF90CF90BE
:10064000BF90AF909F908F900895002309F4BACF88
:10065000EECF90E080E0EBCFCF93DF9300D00F920E
:10066000CDB7DEB79B838A838FEF89838A819B8195
:100670009C01215031093B832A83892B31F40F904F
:100680000F900F90DF91CF91089589819FEF980F80
:1006900099838111FACFEACFCF92DF92EF92FF9246
:1006A0000F931F93CF93DF93EC017D876C875F8758
:1006B0004E87398B288B1B8B0A8BFD8AEC8ADF8A4D
:1006C000CE8A90E080E00E945E0A888FDF91CF9111
:1006D0001F910F91FF90EF90DF90CF9008950C94B1
:1006E000CD050C941B060C94F4059C019FB7F8945F
:1006F000F999FECF32BD21BD60BDFA9AF99A9FBF2C
:100700000895AF92BF92CF92DF92EF92FF920F9334
:100710001F93CF93DF936C01FC01C08DF8E0CF9F56
:10072000E00111249E012F5F3F4FCE0109968217F1
:100730009307F0F4AA24A394B12C7B0101E010E00C
:10074000CE01800F911FA016B106B1F4F601608DA5
:100750006F5F608F90E080E0DF91CF911F910F91EC
:10076000FF90EF90DF90CF90BF90AF900C94660A0F
:1007700089E0A82EB12CE1CFF70161917F010E94A1
:1007800075030F5F1F4FDCCFF999FECF92BD81BD7E
:10079000F89A80B50895AF92BF92CF92DF92EF9210
:1007A000FF920F931F93CF93DF93C62F8A0161119E
:1007B0000EC010E000E0C801DF91CF911F910F91B2
:1007C000FF90EF90DF90CF90BF90AF900895FC0125
:1007D000808D861770F3452B39F488E090E00E94F5
:1007E0003D098C01892B29F3C150DD0B33E0CC0F7F
:1007F000DD1F3A95E1F79E012F5F3F4FCE0109962D
:1008000082179307B0F4CC24C394D12C5801EE2462
:10081000E394F12CCE018E0D9F1DCE14DF0459F20E
:100820000E94C403F50181935F01FFEFEF1AFF0AF5
:10083000F1CF99E0C92ED12CE9CF6F927F928F92A0
:100840009F92AF92BF92CF92DF92EF92FF920F935F
:100850001F93CF93DF936C017B01742ED0E0C0E037
:10086000F601808DD81780F080E0DF91CF911F9145
:100870000F91FF90EF90DF90CF90BF90AF909F903F
:100880008F907F906F90089588E0D89F4001112449
:1008900087010C0F111D5401AE18BF08C73040F07E
:1008A000C40108960E94C40387110FC081E0DDCF08
:1008B000F80161908F01C5018E0F9F1F0E94C40334
:1008C000681202C0CF5FEACFC0E0DF5FC9CF8F936D
:1008D0008FB78F93EF93FF93E1EBF0E08081887FF8
:1008E0008083FF91EF918F918FBF8F91189523B7E0
:1008F000217F23BFF89423B7216023BF78942091F0
:10090000700021602093700022E835E0019720F408
:1009100083B78E7F83BF08952093B2003093B100D8
:100920008895F4CFCF92DF92EF92FF920F93CF93FF
:10093000DF93CDB7DEB729970FB6F894DEBF0FBEB1
:10094000CDBF7C016B0180915002882349F100E00A
:1009500021E0AE01475F5F4FBE016F5F7F4FC70170
:100960000E94C50281111CC089858887BE016F5F06
:100970007F4FC7010E94810381E291E00E949606A9
:10098000CE0101960E94B80710925002D7011C9622
:10099000ED91FC91C601099588EE93E00E947704E1
:1009A00029960FB6F894DEBF0FBECDBFDF91CF9171
:1009B0000F91FF90EF90DF90CF9008959F92AF92AC
:1009C000BF92CF92DF92EF92FF920F931F93CF933C
:1009D000DF93EC016B01F42E152F5901902E0E2D93
:1009E000EE85FF85CB010995292DA5016F2D712F6E
:1009F000CE010E94C50281114BC086E391E00E94A6
:100A000096068F2D912F0E94B8078EE491E00E94E8
:100A1000960670E060E0F50180810E948207F50192
:100A200040816F2D712FCE010E941D04882319F182
:100A3000E889F989C601099586E591E00E94960644
:100A400080ED97E00E947704EF2DF12FCF010896FB
:100A50001192E817F907E1F7EE85FF85C601DF91EE
:100A6000CF911F910F91FF90EF90DF90CF90BF90AB
:100A7000AF909F900994EC85FD85C60109958BE6A2
:100A800091E00E94960688EE93E00E947704E4CFFE
:100A9000DF91CF911F910F91FF90EF90DF90CF905A
:100AA000BF90AF909F9008951F920F920FB60F9234
:100AB00011242F933F934F935F936F937F938F9363
:100AC0009F93AF93BF93EF93FF934A9B0DC08EE12B
:100AD00090E00E942C034A9B07C081E08093500263
:100AE0008EE991E00E949606FF91EF91BF91AF9140
:100AF0009F918F917F916F915F914F913F912F9136
:100B00000F900FBE0F901F90189552985A98E9E6D3
:100B1000F0E080818D7F8083808181608083E89A8E
:100B200078940895CF92DF92EF920F93CF93DF9353
:100B3000FC0110821182128223830483E582778371
:100B4000668351874087DA018C9161E070E0DB01B8
:100B500002C0AA0FBB1F2A95E2F79D01EB0101C05D
:100B6000CC0F0A95EAF701C0660FEA94EAF7862BE4
:100B70008C2B822BDA018C93A681B7818C916C230C
:100B80006223609568236C93D386C286DF91CF91F0
:100B90000F91EF90DF90CF900895FC018FEF80834D
:100BA00011821282A681B7818C91938121E030E07D
:100BB000A90101C0440F9A95EAF7842B8C93A68172
:100BC000B7814C918481B90102C0660F771F8A9565
:100BD000E2F7CB01958101C0220F9A95EAF7822BAB
:100BE000809584238C930895FC0110828FEF81837C
:100BF0001282A681B7818C91948121E030E0A90115
:100C000001C0440F9A95EAF7842B8C93A681B78193
:100C10004C918381B90102C0660F771F8A95E2F774
:100C2000CB01958101C0220F9A95EAF7822B80951E
:100C300084238C930895FC01108211828FEF8283AC
:100C4000A681B7818C91958121E030E0A90101C096
:100C5000440F9A95EAF7842B8C93A681B7814C9127
:100C60008381B90102C0660F771F8A95E2F7CB0135
:100C7000948101C0220F9A95EAF7822B80958423F4
:100C80008C9308951F921FB61F9211242F938F9358
:100C90009F93EF93FF9380915302E82FF0E0EC5A7B
:100CA000FD4F9081992321F020910101222389F0A9
:100CB0008091C1008F7D8093C10081E0809301010C
:100CC000FF91EF919F918F912F911F901FBE1F90C9
:100CD00018958F5F809353029093C60080915302C2
:100CE000803470F310925302EBCF8F938FB78F93B2
:100CF000EF93FF93E1ECF0E080818F7B8083FF91A5
:100D0000EF918F918FBF8F911895E4E6F0E080818D
:100D10008D7F808383E38093C4001092C5008EE2B0
:100D20008093C20088E98093C10008952091010159
:100D30002223B9F02FB7F894A4E5B2E0FC01805C5F
:100D400091919D93992311F08E13FACF1092530233
:100D5000109201018091C10080668093C1002FBF75
:100D600008958895E3CF0C94960690E080E00C946B
:100D700096062FB7F894DB01FC01805C91913D91C0
:100D8000931306C0992311F08E13F8CF81E001C0B0
:100D900080E02FBF0895CF93C82F84E090E00E9499
:100DA0003D09FC01C436B0F08C2F64E60E941D0999
:100DB000805D8083C92FCA3080F08C2F6AE00E944A
:100DC0001D09805D8183C92FC05DC2831382CF015D
:100DD000CF91089580E28083EECF80E28183F4CFCB
:100DE0000E94CB060C949606CF93DF93EC018FE024
:100DF00090E00E943D09FC01C03187E2D80788F1EC
:100E0000CE0160E177E20E942909605D6083EC0118
:100E1000C83E83E0D80740F1CE0168EE73E00E943F
:100E20002909605D6183EC01C436D10500F1CE0172
:100E300064E670E00E942909605D6283EC01CA30BB
:100E4000D105C0F0CE016AE070E00E942909605D22
:100E50006383EC01C05DC4831582CF01DF91CF9124
:100E6000089580E28083D4CF80E28183DDCF80E269
:100E70008283E5CF80E28383EDCF0E94F4060C9459
:100E800096061F93CF93DF93CDB7DEB760970FB66B
:100E9000F894DEBF0FBECDBF182F83E090E00E9414
:100EA0003D0920E1E9E0F1E0DE01119601900D92AB
:100EB0002A95E1F7103110F1E12FE295EF7021E072
:100EC00030E02C0F3D1F2E0F311DF9012081FC0158
:100ED00020831F70E1E0F0E0EC0FFD1FE10FF11D3A
:100EE0002081FC012183128260960FB6F894DEBF48
:100EF0000FBECDBFDF91CF911F91089520E3FC017C
:100F00002083E8CF0E9441070C9496060895EF9243
:100F1000FF920F931F93CF93DF938C0185EB91E0AA
:100F20000E94960670E060E0E80189910E94F00658
:100F300080EC91E00E949606780187E0E80EF11CB3
:100F400070E060E089910E94F006CE15DF05C1F7E0
:100F500088EC91E00E94960670E060E0F8018781DD
:100F6000DF91CF911F910F91FF90EF900C94F006BD
:100F7000EF92FF920F931F93CF93DF938C0186EB39
:100F800091E00E94960670E060E0E80189910E947D
:100F9000820780EC91E00E949606780187E0E80ED7
:100FA000F11C70E060E089910E948207CE15DF0598
:100FB000C1F788EC91E00E94960670E060E0F801CD
:100FC0008781DF91CF911F910F91FF90EF900C944B
:100FD00082072898209A08952098289A089583B126
:100FE00081700895019708F4089525E02A95F1F796
:100FF0000000F8CF1F921FB61F9211248F9380918B
:10100000C6008A3031F481E08093940210929502F8
:1010100009C080919502109294028F5F8034B0F7DE
:10102000809395028F911F901FBE1F9018950F936C
:101030001F93CF93DF93082F2B9A84E190E00E94B7
:10104000F2072B98D0E0C0E010E0C8010C2E02C0DF
:10105000959587950A94E2F780FF0EC02B9A84E15C
:1010600090E00E94F2072196C830D10571F7DF9118
:10107000CF911F910F9108952B98F1CFCDB7DEB787
:10108000E6970FB6F894DEBF0FBECDBFD12CC12CB2
:1010900083E0E82E02E021E044E250E065E270E007
:1010A000CE014A960E949205C9B0EBB00AB1D12C8C
:1010B000F12C10E023E733E041E753E06FE673E003
:1010C000CE0101960E944C0395E0892E2CE3A22EBE
:1010D0003CE3C32ED12C45E0E42E02EF17E02FEEC7
:1010E00037E04CEE57E069EE77E0CE0101960E94C2
:1010F000FF000E9485050E94850683B7817F83BF1C
:1011000083B7816083BF789481ED91E00E94960659
:1011100089EE91E00E94960610E000E06FEFC801B2
:101120000E9475030F5F1F4F08311105B9F78AEF51
:1011300091E00E94960610E000E0C8010E94C403FE
:1011400070E060E00E9482078CE491E00E949606C5
:101150000F5F1F4F0831110581F7198E88E090E06D
:101160000E943D098C0188E0E9E1F1E0DE019696FC
:1011700001900D928A95E1F7BE016A5D7F4FCE0125
:1011800001960E948103A80161E0CE0101960E94B0
:10119000CB038C018CE092E00E949606C8010E946D
:1011A000B8078DE192E00E94960670E060E0898DBC
:1011B0000E94F0068BE292E00E94960610E000E0AA
:1011C000C8010E94C40370E060E00E9482078CE4C2
:1011D00091E00E9496060F5F1F4F0831110581F7BD
:1011E0008DE392E00E94960610E000E0C8010E94A4
:1011F000C40370E060E00E9482078CE491E00E94EA
:1012000096060F5F1F4F0831110581F7BE01665E1C
:101210007F4FCE0101960E949204E12C01E09E01D5
:101220002A5C3F4FAE01425D5F4FBE01665E7F4F5D
:10123000CE0101960E94DE04E9CF991B79E004C03B
:10124000991F961708F0961B881F7A95C9F7809505
:101250000895AA1BBB1B51E107C0AA1FBB1FA617FD
:10126000B70710F0A61BB70B881F991F5A95A9F74F
:1012700080959095BC01CD0108950F931F93CF9356
:10128000DF938230910510F482E090E0E0919802C3
:10129000F091990220E030E0A0E0B0E0309719F141
:1012A000408151810281138148175907C8F0841782
:1012B000950769F4109731F012960C9312971396D4
:1012C0001C9327C0009398021093990222C0211505
:1012D000310519F04217530718F49A01BD01EF01C7
:1012E000DF01F801DBCF21153105F9F0281B390B9F
:1012F0002430310580F48A819B816115710521F0CC
:10130000FB019383828304C0909399028093980297
:10131000FE01329644C0FE01E20FF31F81939193C8
:1013200022503109398328833AC0209196023091A6
:101330009702232B41F4209105013091060130934F
:101340009702209396022091030130910401211508
:10135000310541F42DB73EB7409107015091080186
:10136000241B350BE0919602F0919702E217F307E8
:10137000A0F42E1B3F0B2817390778F0AC014E5F05
:101380005F4F2417350748F04E0F5F1F50939702A9
:10139000409396028193919302C0E0E0F0E0CF0188
:1013A000DF91CF911F910F910895CF93DF93009715
:1013B00009F481C0FC01329713821282A091980235
:1013C000B0919902109781F420813181820F931F8F
:1013D00020919602309197022817390751F5F09322
:1013E0009702E093960267C0ED0120E030E0CE174F
:1013F000DF0740F44A815B819E0141155105F1F000
:10140000EA01F5CFD383C28340815181840F951FB8
:10141000C817D90759F488819981840F951F0296BE
:10142000918380838A819B819383828321153105F7
:1014300029F4F0939902E09398023DC0E901FB83FF
:10144000EA8349915991C40FD51FEC17FD0761F448
:1014500080819181840F951F0296E9019983888389
:10146000828193819B838A83E0E0F0E012968D91E4
:101470009C911397009719F0FD01DC01F7CF8D9136
:101480009C9111979D012E5F3F4F820F931F2091DA
:101490009602309197022817390769F4309729F49A
:1014A000109299021092980202C013821282B09395
:1014B0009702A0939602DF91CF910895F999FECFFC
:1014C00092BD81BDF89A992780B50895262FF99984
:1014D000FECF1FBA92BD81BD20BD0FB6F894FA9A17
:0C14E000F99A0FBE01960895F894FFCF12
:1014EC0001010100009A02200030313233343536CC
:1014FC003738394142434445460102030405060787
:10150C00080A596F75206164646564206E657720E4
:10151C006B65793A20000A6C6F636B5F7472795F4C
:10152C00756E6C6F636B5F4C45443A2020000A4328
:10153C005243203D20000A556E6C6F636B696E67D9
:10154C002073756363657373210A000A556E6C6FA3
:10155C00636B696E67206661696C65642120596FE5
:10156C007572206465766973652069736E277420C3
:10157C007375697461626C65206B65790A000A5039
:10158C006C656173652C20616464206E6577206BDB
:10159C0065793A0A000A46616D696C79203D200034
:1015AC0020206964203D20002020435243203D2010
:1015BC00000A0A48656C6C6F2066726F6D2061764C
:1015CC00725F6C6F636B0A0A000A0A636C65617266
:1015DC0020454550524F4D3A0A000A0A7061727309
:1015EC006520454550524F4D303A0A000A746573D8
:1015FC007420454550524F4D31203D20000A6E75E8
:10160C006D206B65797331203D20000A0A70617280
:10161C00736520454550524F4D313A0A000A0A7005
:10162C006172736520454550524F4D323A0A0000A5
:00000001FF
