:100000000C9434000C9451000C9451000C94510049
:100010000C9451000C9451000C9451000C9451001C
:100020000C9451000C9451000C9451000C9451000C
:100030000C9451000C9451000C9451000C945100FC
:100040000C9451000C9451000C944E010C945300EC
:100050000C9486000C9451000C9451000C945100A7
:100060000C9451000C94510011241FBECFEFD8E026
:10007000DEBFCDBF11E0A0E0B1E0E8EDF5E002C0E9
:1000800005900D92AC31B107D9F721E0ACE1B1E0B8
:1000900001C01D92A336B207E1F70E9476010C94CD
:1000A000EA020C9400001F921FB61F9211242F9396
:1000B0008F939F93EF93FF9380911D01E82FF0E0C2
:1000C000E25EFE4F9081992321F0209100012223CE
:1000D00089F08091C1008F7D8093C10081E0809381
:1000E0000001FF91EF919F918F912F911F901FBE63
:1000F0001F9018958F5F80931D019093C60080918B
:100100001D01803470F310921D01EBCF8F938FB7D8
:100110008F93EF93FF93E1ECF0E080818F7B8083FE
:10012000FF91EF918F918FBF8F911895E4E6F0E0EA
:1001300080818D7F808383E38093C4001092C5000B
:100140008EE28093C20088E98093C10008952091D7
:1001500000012223B9F02FB7F894AEE1B1E0FC0121
:10016000805C91919D93992311F08E13FACF109298
:100170001D01109200018091C10080668093C10032
:100180002FBF08958895E3CF0C94A7002FB7F8945C
:10019000DB01FC01805C91913D91931306C0992392
:1001A00011F08E13F8CF81E001C080E02FBF0895D9
:1001B000CF93C82F84E090E00E94C901FC01C436AF
:1001C000B0F08C2F64E60E94A901805D8083C92F66
:1001D000CA3080F08C2F6AE00E94A901805D818383
:1001E000C92FC05DC2831382CF01CF91089580E2F1
:1001F0008083EECF80E28183F4CF0E94D8000C94FC
:10020000A700CF93DF93EC018FE090E00E94C9013B
:10021000FC01C03187E2D80788F1CE0160E177E2C6
:100220000E94B501605D6083EC01C83E83E0D807A1
:1002300040F1CE0168EE73E00E94B501605D61831C
:10024000EC01C436D10500F1CE0164E670E00E94F5
:10025000B501605D6283EC01CA30D105C0F0CE010A
:100260006AE070E00E94B501605D6383EC01C05DEF
:10027000C4831582CF01DF91CF91089580E28083FE
:10028000D4CF80E28183DDCF80E28283E5CF80E23C
:100290008383EDCF0E9401010C94A7001F921FB62B
:1002A0001F9211248F938091C6008A3031F481E02F
:1002B00080931C0110925E0109C080915E01109232
:1002C0001C018F5F8034B0F780935E018F911F9087
:1002D0001FBE1F901895EAE7F0E080818368808355
:1002E000ECE7F0E080818064808308950E946B01D8
:1002F00080E284B915B884B1836084B9289A0E94D9
:10030000960083B7817F83BF83B7816083BF789472
:1003100088E091E00E94A70080917A008064809339
:100320007A0080917A0084FFF7CF809178009091D5
:100330007900893E23E0920750F02D9A70E060E04A
:100340000E9401010E94A70089E191E0E3CF2D986E
:10035000F5CF991B79E004C0991F961708F0961BFA
:10036000881F7A95C9F780950895AA1BBB1B51E198
:1003700007C0AA1FBB1FA617B70710F0A61BB70B15
:10038000881F991F5A95A9F780959095BC01CD01BA
:1003900008950F931F93CF93DF938230910510F44C
:1003A00082E090E0E0916101F091620120E030E0B4
:1003B000A0E0B0E0309719F14081518102811381B2
:1003C00048175907C8F08417950769F4109731F05A
:1003D00012960C93129713961C9327C000936101F9
:1003E0001093620122C02115310519F042175307FD
:1003F00018F49A01BD01EF01DF01F801DBCF2115EF
:100400003105F9F0281B390B2430310580F48A813D
:100410009B816115710521F0FB019383828304C0E8
:100420009093620180936101FE01329644C0FE0107
:10043000E20FF31F8193919322503109398328836E
:100440003AC020915F0130916001232B41F420914B
:100450000401309105013093600120935F012091E8
:100460000201309103012115310541F42DB73EB74A
:100470004091060150910701241B350BE0915F016B
:10048000F0916001E217F307A0F42E1B3F0B281731
:10049000390778F0AC014E5F5F4F2417350748F0FD
:1004A0004E0F5F1F5093600140935F0181939193C2
:1004B00002C0E0E0F0E0CF01DF91CF911F910F91FA
:1004C0000895CF93DF93009709F481C0FC01329720
:1004D00013821282A0916101B0916201109781F4A0
:1004E00020813181820F931F20915F013091600143
:1004F0002817390751F5F0936001E0935F0167C059
:10050000ED0120E030E0CE17DF0740F44A815B8147
:100510009E0141155105F1F0EA01F5CFD383C28365
:1005200040815181840F951FC817D90759F48881DC
:100530009981840F951F0296918380838A819B8184
:10054000938382832115310529F4F0936201E093AE
:1005500061013DC0E901FB83EA8349915991C40FD0
:10056000D51FEC17FD0761F480819181840F951FE1
:100570000296E90199838883828193819B838A8390
:10058000E0E0F0E012968D919C911397009719F09E
:10059000FD01DC01F7CF8D919C9111979D012E5F9C
:1005A0003F4F820F931F20915F0130916001281708
:1005B000390769F4309729F41092620110926101B1
:1005C00002C013821282B0936001A0935F01DF9199
:0805D000CF910895F894FFCFCC
:1005D80001010000630120000A0A48656C6C6F2065
:0C05E80066726F6D206176720A0A0000D6
:00000001FF
