:100000000C9434000C9451000C9451000C94510049
:100010000C9451000C94CC030C9451000C9451009E
:100020000C9451000C947E030C9451000C948E039C
:100030000C9451000C9451000C9451000C945100FC
:100040000C9451000C9451000C9451000C945100EC
:100050000C9451000C9451000C9451000C945100DC
:100060000C9451000C94510011241FBECFEFD8E026
:10007000DEBFCDBF11E0A0E0B1E0E6E5F9E002C0EF
:1000800005900D92AE32B107D9F721E0AEE2B1E0B2
:1000900001C01D92AB33B207E1F70E9451040C94EA
:1000A000A9040C940000CF93DF939C01962F872F17
:1000B000CAE0D0E0E92FF82FC901BE010E948104F7
:1000C00081939E2F8F2F2A30310518F4DF91CF9125
:1000D00008959B01EFCFEF92FF921F93CF93DF9391
:1000E00000D000D000D0CDB7DEB79A8389839C01C1
:1000F0002D5F3F4F3C832B8306969E838D83CE01DD
:1001000001967C01BE01695F7F4F41E050E0D7015D
:10011000ED91FD917D0180819181DC0114962D91FD
:100120003C91D9011C918281DA0102C0AA0FBB1F48
:100130008A95E2F7CD0180958123D9018C93808146
:100140009181DC012D913C91D9018C919281FA0130
:1001500001C0EE0F9A95EAF78E2B8C936E157F05F2
:10016000B1F626960FB6F894DEBF0FBECDBFDF9175
:10017000CF911F91FF90EF900895DF92EF92FF9241
:100180000F931F93CF93DF93EC01D62E88E0E82ED8
:10019000F12C01E010E02D2D221F2227221FDD0C63
:1001A000EE81FF810480F581E02D8885A80102C0E1
:1001B000440F551F8A95E2F7CA0190812223B1F1BD
:1001C000892B8083E881F9810480F581E02D2081ED
:1001D0008A81A80102C0440F551F8A95E2F7CA011F
:1001E000809582238083E985FA8581E00995E881FD
:1001F000F9810480F581E02D80819A81980101C008
:10020000220F9A95EAF7822B8083E985FA8581E0AF
:10021000099551E0E51AF10809F0BDCFDF91CF91C2
:100220001F910F91FF90EF90DF90089580958923A3
:10023000C8CF0F931F93CF93DF93EC01EB81FC8129
:100240000480F581E02D20818D8101E010E0A8017E
:1002500002C0440F551F8A95E2F7CA018095822398
:100260008083E985FA8581E00995EB81FC81048032
:10027000F581E02D80819D8101C0000F9A95EAF7FC
:10028000082B0083E985FA8581E0DF91CF911F91EA
:100290000F910994CF92DF92FF920F931F93CF9308
:1002A000DF93EC016B018B010C5F1F4FFF24F39474
:1002B000F80162918F018D85811101C06095CE0199
:1002C0000E94BD006F2DCE010E94BD00FF0CCE012B
:1002D0000E941901EB85FC8581E090E009950C15E1
:1002E0001D0531F7DF91CF911F910F91FF90DF90A6
:1002F000CF900895FC01608341832283138214828E
:10030000158216821782108611861286138681E066
:1003100084870895FC01648345830895FC018081EE
:100320008C3320F081818F5F8183108281818C33B7
:1003300020F082818F5F828311828281883108F070
:10034000128284818C3308F014828581883108F010
:1003500015828781813079F480858C3320F0818506
:100360008F5F8187108681858C3350F082858F5F07
:10037000828711860895811103C010861186128626
:100380000895FC019385923010F0138608959F5FC5
:100390009387089588EE93E0909389008093880076
:1003A000E1E8F0E0808188608083808185608083DF
:1003B000EFE6F0E080818260808308958DB38360F2
:1003C0008DBBE9E6F0E0808184608083808181607C
:1003D000808308951AB8509AE8E6F0E0808184603E
:1003E00080838EEF80936D000895FC01908121E061
:1003F00030E001C0220F4A95EAF7922B9083FB016F
:100400008081209528232083089588B190E2892750
:1004100088B90895CF93DF9300D00F92CDB7DEB7A0
:100420009B838A838FEF89838A819B819C012150E2
:1004300031093B832A83892B31F40F900F900F9061
:10044000DF91CF91089589819FEF980F9983811152
:10045000FACFEACF9C0193B7917F966093BFF8944F
:1004600083B7816083BF78948091700081608093AE
:10047000700082E895E02150310920F483B78E7F27
:1004800083BF08958093B2009093B1008895F3CF15
:10049000CF92DF92EF92FF920F931F93CF93DF9350
:1004A000CDB7DEB728970FB6F894DEBF0FBECDBF2D
:1004B0007C016B018A01CA010E948E01F8018385CB
:1004C000811156C081812AE0622F0E947504E82FB5
:1004D000F0E0ED5DFE4F80818D83E92FF0E0ED5D72
:1004E000FE4F808180588E83F80180810E947504C0
:1004F000E82FF0E0ED5DFE4F80818F83E92FF0E083
:10050000ED5DFE4F80818887F701858599E3811134
:1005100096EC998381958A83F80182816AE00E9432
:100520007504E82FF0E0ED5DFE4F80818B83E92FAD
:10053000F0E0ED5DFE4F80818C83BE016B5F7F4FED
:10054000C7010E944A01BE016F5F7F4FC6010E9432
:100550004A0128960FB6F894DEBF0FBECDBFDF91DB
:10056000CF911F910F91FF90EF90DF90CF90089562
:10057000813001F584816AE00E947504E82FF0E083
:10058000ED5DFE4F80818D83E92FF0E0ED5DFE4F44
:1005900080818E83F7019585892F81958F83888748
:1005A000911106C097E799838A83F8018581B6CFB8
:1005B00098E8F9CF823009F681852AE0622F0E94FF
:1005C0007504E82FF0E0ED5DFE4F80818D83E92F0B
:1005D000F0E0ED5DFE4F808180588E83F8018085CC
:1005E0000E947504E82FF0E0ED5DFE4F80818F835F
:1005F000E92FF0E0ED5DFE4F80818887F70185856A
:10060000811130C083EB8983F8012285822F64E653
:100610000E947504482F50E0FA01ED5DFE4F808185
:100620008A8330E06CE96403C001659F900D11245A
:10063000820F931F6AE070E00E9495047727FB0108
:10064000ED5DFE4F80818B8346EF4603C001479FDF
:10065000900D1124820F931F64E670E00E949504B0
:10066000FC0167CF8CE4CFCFFC018485882379F02F
:10067000148682818D3020F08C50828381E08383C8
:1006800085818D3020F08C50858381E0868381E0E8
:1006900084878381882321F08281845F828313820F
:1006A0008681882329F08581845F85831682089559
:1006B00008950F931F93CF938C01C62FFC01808167
:1006C00090E002C0959587956A95E2F780FF11C08A
:1006D00088EC90E00E940A02F801808190E002C05C
:1006E00095958795CA95E2F78170CF911F910F91EB
:1006F000089580E0FACF8A95F1F708958F938FB728
:100700008F93EF93FF93E1EBF0E08081887F80830C
:10071000FF91EF918F918FBF8F9118951F920F923C
:100720000FB60F9211242F933F934F935F936F93C4
:100730007F938F939F93AF93BF93EF93FF9380919A
:100740002E018F5F80932E0180913501813029F435
:10075000809136018F5F8093360190912F018091B7
:100760003201981308C090913001809133019813A1
:1007700002C00E940502FF91EF91BF91AF919F913E
:100780008F917F916F915F914F913F912F910F903A
:100790000FBE0F901F9018951F920F920FB60F92D9
:1007A00011242F933F934F935F936F937F938F9376
:1007B0009F93AF93BF93EF93FF9380912201882380
:1007C00009F46BC01092220162E089E290E00E947D
:1007D00059038823D9F080913901823098F0109222
:1007E0003901FF91EF91BF91AF919F918F917F91CF
:1007F0006F915F914F913F912F910F900FBE0F908E
:100800001F9018958F5F80933901EBCF63E089E2E9
:1008100090E00E945903882331F080912F018F5F6F
:1008200080932F01DECF64E089E290E00E945903BB
:10083000882331F0809130018F5F80933001D1CFD8
:1008400065E089E290E00E945903882331F08091AD
:1008500032018F5F80933201C4CF66E089E290E07D
:100860000E945903882331F0809133018F5F809378
:100870003301B7CF67E089E290E00E9459038823F3
:1008800009F4AFCF80913501823018F01092350114
:10089000A8CF8F5F80933501A4CF81E080932201A0
:1008A000A0CF8EE091E00E946B0080E091E00E947A
:1008B0006B000E94CA010E94EA01359A45982DE01A
:1008C00049E16FE08EE291E00E947A018AE1809333
:1008D00032018DE0809333014EE251E060E071E03F
:1008E0008EE091E00E944802F7CF991B79E004C0A6
:1008F000991F961708F0961B881F7A95C9F780955F
:100900000895AA1BBB1B51E107C0AA1FBB1FA61756
:10091000B70710F0A61BB70B881F991F5A95A9F7A8
:1009200080959095BC01CD01089597FB072E16F494
:10093000009407D077FD09D00E94810407FC05D000
:100940003EF4909581959F4F0895709561957F4FE6
:060950000895F894FFCFAA
:100956001C01031C01041C01057B032A02011C0166
:10096600001C01011C01027B032A02012400230052
:0E097600250001C0F9A4B0999282F88090008B
:00000001FF
